:020000040800F2
:1000000000500020E11A0008F1190008F719000853
:10001000FD190008031A0008091A00080000000072
:100020000000000000000000000000000F1A00089F
:100030001B1A000800000000271A0008331A0008E5
:10004000291B0008291B0008291B0008291B000880
:10005000291B0008291B0008291B0008291B000870
:10006000291B0008291B0008291B0008291B000860
:10007000291B0008291B0008291B0008291B000850
:10008000291B0008291B0008291B0008291B000840
:10009000291B0008291B0008291B0008291B000830
:1000A000291B0008291B0008291B0008291B000820
:1000B000411A0008291B0008291B0008291B0008F9
:1000C000291B0008291B0008291B0008291B000800
:1000D000291B0008291B0008551A0008291B0008C5
:1000E000291B0008291B0008291B0008000000002C
:1000F0000000000000000000000000000000000000
:0C01000000000000000000005FF808F1A3
:10010C0010B5054C237833B9044B13B10448AFF345
:10011C0000800123237010BD90000020000000001F
:10012C00384F000808B5034B1BB103490348AFF324
:10013C00008008BD0000000094000020384F00082B
:10014C0090B583B000AF0023FB7193E0FA79FB7993
:10015C004D49895C4D4AD154FB79032B32D801A20D
:10016C0052F823F08101000895010008A90100084C
:10017C00BD010008FC790221454802F077F80346DE
:10018C001A46414B1A551EE0FC791021404802F0EA
:10019C006DF803461A463C4B1A5514E0FC790121C4
:1001AC003C4802F063F803461A46374B1A550AE0EE
:1001BC00FC790121364802F059F803461A46324BB5
:1001CC001A5500E000BFFB792F4AD25CFB792F490E
:1001DC00CB5C9A424BD1FB792C4AD25CFB792E49F1
:1001EC00CB5C9A4214D0FA79FB792849895C2A4A6B
:1001FC00D154FB79284AD35C002B38D1FB79274AA0
:10020C000021D154FB79264A642122F813102EE0E8
:10021C00FB79234A32F81320013A91B2204A22F892
:10022C001310FB791E4A32F81330002B1FD1FB79C7
:10023C00194AD35C002B0CD1FB79194A642122F8A2
:10024C001310FB79154A0121D154FB79154A012170
:10025C00D154FB79104AD35C012B08D1FB79104A9D
:10026C00642122F81310FB790E4A0021D154FB793A
:10027C000133FB71FB79032B7FF668AF00BF00BF26
:10028C000C37BD4690BD00BF0400002008000020C4
:10029C0000080140000C01400C0000200000002070
:1002AC0010000020C000002080B485B000AF0346D1
:1002BC00FB71FB79032B01D900230DE0FB79094A73
:1002CC00D35CFB73FB79074A0121D154FB7B002BD8
:1002DC000CBF01230023DBB218461437BD4680BC8B
:1002EC00704700BF0000002080B485B000AF03460B
:1002FC00FB71FB79032B01D9FF230DE0FB79094A34
:10030C00D35CFB73FB79074A0021D154FB7B012B97
:10031C000CBF01230023DBB218461437BD4680BC4A
:10032C00704700BFC000002080B500AF00F000FB9C
:10033C0000F0EEFC00F004FA00BF80BD80B500AF09
:10034C0001F0EEFB00F024F800F064F800F04EF938
:10035C0000F0ACF800F020F9094802F031FC002163
:10036C00084802F0D7FC32221421074801F028F883
:10037C0032221421054801F023F801F0F1F8FCE7D2
:10038C0044010020FC000020350300084D0100084A
:10039C0080B590B000AF07F1180328220021184651
:1003AC0004F082F93B1D00221A605A609A60DA60F0
:1003BC001A610223BB610123BB621023FB6202237F
:1003CC007B630023BB634FF46013FB6307F11803DB
:1003DC00184601F097FF0346002B01D000F07EF980
:1003EC000F237B600223BB600023FB604FF4806310
:1003FC003B6100237B613B1D0221184602F002FA8F
:10040C000346002B01D000F069F900BF4037BD4610
:10041C0080BD000080B586B000AF07F10803002254
:10042C001A605A609A60DA603B4600221A605A6081
:10043C001D4B4FF080421A601B4B41F63F725A60C5
:10044C00194B00229A60184B6322DA60164B00227B
:10045C001A61154B00229A61134802F061FB0346A6
:10046C00002B01D000F03AF94FF48053BB6007F138
:10047C00080319460C4802F0B9FE0346002B01D0C4
:10048C0000F02CF900233B6000237B603B461946AF
:10049C00054803F03BFA0346002B01D000F01EF98F
:1004AC0000BF1837BD4680BD4401002080B58EB01A
:1004BC0000AF07F1280300221A605A609A60DA60D4
:1004CC0007F1200300221A605A603B1D00221A60BB
:1004DC005A609A60DA601A615A619A612C4B2D4A03
:1004EC001A602B4B4F225A60294B00229A60284BE2
:1004FC004F22DA60264B00221A61254B00229A61AA
:10050C00234802F00DFB0346002B01D000F0E6F867
:10051C004FF48053BB6207F1280319461C4802F0C4
:10052C0065FE0346002B01D000F0D8F8184802F005
:10053C0099FB0346002B01D000F0D0F800233B625E
:10054C0000237B6207F120031946114803F0DEF902
:10055C000346002B01D000F0C1F860237B60002320
:10056C00BB600023FB6000237B613B1D002219460E
:10057C00074802F079FD0346002B01D000F0AEF8DD
:10058C00034801F0ABF900BF3837BD4680BD00BF52
:10059C00FC0000200004004080B500AF114B124A53
:1005AC001A60104B4FF4E1325A600E4B00229A60E5
:1005BC000C4B0022DA600B4B00221A61094B0C2207
:1005CC005A61084B00229A61064B0022DA610548F9
:1005DC0003F00CFA0346002B01D000F07FF800BFAB
:1005EC0080BD00BF8C0100200044004080B586B067
:1005FC0000AF07F1080300221A605A609A60DA60B3
:10060C002E4B9B692D4A43F0040393612B4B9B6942
:10061C0003F004037B607B68284B9B69274A43F0FB
:10062C0008039361254B9B6903F008033B603B680F
:10063C0000224FF48761224801F02FFE00224FF474
:10064C00A061204801F029FE1323BB600023FB604E
:10065C0000233B6107F1080319461A4801F082FC9C
:10066C000123BB600023FB6000233B6107F10803FF
:10067C001946134801F076FC4FF48763BB600123E5
:10068C00FB6000233B6102237B6107F108031946E1
:10069C000B4801F067FC4FF4A063BB600123FB60C7
:1006AC0000233B6102237B6107F1080319460548CF
:1006BC0001F058FC00BF1837BD4680BD0010024049
:1006CC00000C01400008014080B582B000AF78609A
:1006DC0000F01AFF00BF0837BD4680BD80B400AFE4
:1006EC0072B600BFFEE7000080B500AF0320FFF735
:1006FC00DBFD0346002B16D00C4B1B68132B12DCB6
:10070C0044F6206000F0FCFF094B01221A600949F5
:10071C00094804F087F803469AB24FF47A730649F5
:10072C00064803F0B3F900BF80BD00BFB80000203D
:10073C00BC000020504F0008D40100208C01002088
:10074C0080B500AFFFF7D0FF364B1B68012B67D18C
:10075C00354B1B680B3B032B4CD801A252F823F0F2
:10076C007D0700089B070008BF070008DD0700088D
:10077C0000F066F801224FF480612C4801F08DFDE9
:10078C0000224FF480712A4801F087FD33E0294B99
:10079C001B68184600F060F801224FF48061234872
:1007AC0001F07BFD00224FF48071214801F075FDB2
:1007BC0021E000F045F800224FF480611B4801F065
:1007CC006CFD01224FF48071194801F066FD12E0B6
:1007DC00194B1B68184600F03FF801224FF480615A
:1007EC00124801F05AFD01224FF48071104801F0BB
:1007FC0054FD00E000BF114B1B68012B10D10022EF
:10080C004FF48061094801F048FD00224FF48071DB
:10081C00074801F042FD034B00221A6000F010F86B
:10082C0000BF80BDBC000020B8000020000C0140BF
:10083C0000080140AC000020B0000020EC000020BB
:10084C0080B400AF034B1B6800225A6300BFBD4647
:10085C0080BC7047FC00002080B485B000AF78608D
:10086C007B68C3F10503FB600B4B1B68012B04D1A8
:10087C000A4B1B68FA685A6303E0084B1B6800229A
:10088C005A63054B1B68C3F10103034A136000BF95
:10089C001437BD4680BC704718000020FC000020B7
:1008AC0080B500AF00224FF480611B4801F0F5FCCD
:1008BC0000220821194801F0F0FC002220211748E1
:1008CC0001F0EBFC00221021144801F0E6FC144B63
:1008DC0000221A60FFF7B4FF00224FF480610F482A
:1008EC0001F0DBFC00224FF480710B4801F0D5FCC9
:1008FC000C4B14221A600C4B14221A600B4B142252
:10090C001A604FF47A7000F0C7FE44F6206000F0D5
:10091C00DDFE00BF80BD00BF00080140000C01409F
:10092C00BC000020B8000020AC000020B00000206B
:10093C0080B500AFB04B1B680E2B00F2D08101A22A
:10094C0052F823F08D090008EB0C0008EB0C0008A2
:10095C00EB0C0008EB0C0008EB0C0008EB0C00088F
:10096C00EB0C0008EB0C0008EB0C0008EB0C00087F
:10097C00B1090008750A00083F0B00083D0C00087F
:10098C009D4B0B221A609D4B32221A609C4B2E22DF
:10099C001A604FF47A7000F07FFE4BF2987000F002
:1009AC0095FE9DE101224FF48061964801F075FCA3
:1009BC0000220821944801F070FC0022202192486A
:1009CC0001F06BFC012210218F4801F066FC8F4B6B
:1009DC001B68012B2BD14FF47A7000F05DFE874B16
:1009EC001B68013B854A1360854B1B68013B844A9D
:1009FC001360824B1B681A468549864803F012FF28
:100A0C0003469AB24FF47A738249834803F03EF856
:100A1C007B4B1B681A4681497E4803F003FF034653
:100A2C009AB24FF47A737B497B4803F02FF87C4BD6
:100A3C001B68012B0DD1704B0C221A60704B0322DA
:100A4C001A604FF47A7000F027FE4FF47A6000F0D1
:100A5C003DFE0020FFF728FC0346002B01D0FFF7DA
:100A6C001FFF00F071FA3BE101224FF480616548F1
:100A7C0001F013FC00220821634801F00EFC012256
:100A8C002021614801F009FC012210215E4801F08F
:100A9C0004FC5E4B1B68012B2BD14FF47A7000F0D9
:100AAC00FBFD564B1B68013B544A1360544B1B68AF
:100ABC00013B534A1360514B1B681A465449554825
:100ACC0003F0B0FE03469AB24FF47A735149524880
:100ADC0002F0DCFF4A4B1B681A4652494D4803F0A2
:100AEC00A1FE03469AB24FF47A734A494A4802F07F
:100AFC00CDFF4B4B1B68012B10D13F4B0D221A60C5
:100B0C003E4B2E221A603E4B32221A604FF47A7002
:100B1C0000F0C2FD4BF2987000F0D8FD0020FFF7FA
:100B2C00C3FB0346002B01D0FFF7BAFE00F00CFA12
:100B3C00D6E000224FF48061324801F0AEFB012276
:100B4C000821314801F0A9FB012220212E4801F097
:100B5C00A4FB002210212C4801F09FFB2B4B1B689F
:100B6C00012B2BD14FF47A7000F096FD234B1B68B0
:100B7C00013B224A1360224B1B68013B204A136045
:100B8C001E4B1B681A462849224803F04BFE0346AD
:100B9C009AB24FF47A731F491F4802F077FF184B33
:100BAC001B681A4621491B4803F03CFE03469AB2C7
:100BBC004FF47A731749184802F068FF184B1B68FA
:100BCC00012B0DD10C4B0E221A600C4B03221A6018
:100BDC004FF47A7000F060FD4FF47A6000F076FD0F
:100BEC000020FFF761FB0346002B01D0FFF758FEF6
:100BFC0000F0AAF974E000BFB8000020AC0000209F
:100C0C00B000002000080140000C0140D40000207E
:100C1C006C4F0008D40100208C010020844F000888
:100C2C00DC000020A04F0008BC4F0008D84F000883
:100C3C0001224FF480612B4801F02FFB0122082187
:100C4C00294801F02AFB01222021274801F025FB2D
:100C5C0000221021244801F020FB244B1B68012B9F
:100C6C002BD14FF47A7000F017FD214B1B68013B20
:100C7C001F4A13601F4B1B68013B1E4A13601C4B21
:100C8C001B681A461C491D4803F0CCFD03469AB25A
:100C9C004FF47A7319491A4802F0F8FE154B1B6889
:100CAC001A461849154803F0BDFD03469AB24FF495
:100CBC007A731249124802F0E9FE134B1B68012BA0
:100CCC0002D1124B00221A600020FFF7EDFA034606
:100CDC00002B01D0FFF7E4FD00F036F900E000BF77
:100CEC0000BF80BD00080140000C0140D400002072
:100CFC00AC000020B0000020F44F0008D40100200C
:100D0C008C010020D84F0008DC000020B800002027
:100D1C0080B500AF7F4B1B68142B02D01E2B7BD0F1
:100D2C00F5E001224FF480617B4801F0B6FA002215
:100D3C0008217A4801F0B1FA00222021774801F00D
:100D4C00ACFA01221021754801F0A7FA744B1B680C
:100D5C00012B2BD1734B1B68013B724A1360724BF6
:100D6C001B68013B704A13606E4B1B681A466F4937
:100D7C006F4803F057FD03469AB24FF47A736C49EF
:100D8C006C4802F083FE684B1B681A466A49684837
:100D9C0003F048FD03469AB24FF47A7364496548F0
:100DAC0002F074FE4FF47A7000F076FC634B1B6813
:100DBC00012B25D100224FF48061574801F06DFAC8
:100DCC0000220821554801F068FA002220215348DE
:100DDC0001F063FA00221021504801F05EFA4D4BED
:100DEC001E221A604F4B14221A604F4B14221A60A9
:100DFC004FF47A7000F050FC44F6206000F066FC72
:100E0C000020FFF751FA0346002B02D0414B002281
:100E1C001A6000F099F87AE000224FF480613E48A5
:100E2C0001F03BFA012208213C4801F036FA01227C
:100E3C0020213A4801F031FA00221021374801F004
:100E4C002CFA374B1B68012B2BD1364B1B68013B03
:100E5C00344A1360344B1B68013B334A1360314BEB
:100E6C001B681A463649324803F0DCFC03469AB23A
:100E7C004FF47A732E492F4802F008FE2A4B1B6858
:100E8C001A4630492A4803F0CDFC03469AB24FF477
:100E9C007A732749274802F0F9FD4FF47A7000F075
:100EAC00FBFB264B1B68012B25D100224FF48061E4
:100EBC00194801F0F2F900220821184801F0EDF967
:100ECC0000222021154801F0E8F9002210211348D6
:100EDC0001F0E3F90F4B14221A60124B14221A6022
:100EEC00114B14221A604FF47A7000F0D5FB44F6C3
:100EFC00206000F0EBFB0020FFF7D6F90346002B37
:100F0C0002D0044B00221A6000F01EF800BF00BF94
:100F1C0080BD00BFB800002000080140000C01405B
:100F2C00D4000020AC000020B000002010500008BD
:100F3C00D40100208C01002028500008DC00002087
:100F4C00445000086050000880B500AF0120FFF746
:100F5C00ABF90346002B05D10120FFF7C5F9034679
:100F6C00002B04D0984B1B686433974A1360022003
:100F7C00FFF79AF90346002B00F0AC81924B1B68EB
:100F8C00184600F073FB914B1B680B3B132B00F2C4
:100F9C00A38101A252F823F0F50F00086D10000890
:100FAC00E51000085D110008E5120008E5120008C4
:100FBC00E5120008E5120008E51200080912000805
:100FCC00E5120008E5120008E5120008E512000819
:100FDC00E5120008E5120008E5120008E512000809
:100FEC00E512000875120008774B1B68784A82FBE3
:100FFC0003125211DB17D21A764B1B681344754A35
:10100C001360714B1B68724A82FB03125211DB177F
:10101C00D21A714B1B6813446F4A13606A4B00223F
:10102C001A606C4B1B681A466C496D4803F0FAFB4E
:10103C0003469AB24FF47A7369496A4802F026FD66
:10104C00654B1B681A466849654803F0EBFB034681
:10105C009AB24FF47A736249624802F017FD3CE190
:10106C00594B1B685A4A82FB03125211DB17D21AD6
:10107C00584B1B681344574A1360534B1B68544A14
:10108C0082FB03125211DB17D21A534B1B68134409
:10109C00514A13604C4B00221A604E4B1B681A4687
:1010AC004E494F4803F0BEFB03469AB24FF47A7395
:1010BC004B494C4802F0EAFC474B1B681A464B491B
:1010CC00474803F0AFFB03469AB24FF47A73444996
:1010DC00444802F0DBFC00E13B4B1B683C4A82FBC2
:1010EC0003125211DB17D21A3A4B1B681344394ABC
:1010FC001360354B1B68364A82FB03125211DB1707
:10110C00D21A354B1B681344334A13602E4B002202
:10111C001A60304B1B681A463549314803F082FB84
:10112C0003469AB24FF47A732D492E4802F0AEFC66
:10113C00294B1B681A462F49294803F073FB0346B9
:10114C009AB24FF47A732649264802F09FFCC4E009
:10115C001D4B1B681E4A82FB03125211DB17D21A5D
:10116C001C4B1B6813441B4A1360174B1B68184A13
:10117C0082FB03125211DB17D21A174B1B68134454
:10118C00154A1360104B00221A60124B1B681A464A
:10119C001949134803F046FB03469AB24FF47A738D
:1011AC000F49104802F072FC0B4B1B681A46114990
:1011BC000B4803F037FB03469AB24FF47A73084995
:1011CC00084802F063FC88E0B4000020B80000205E
:1011DC001F85EB51AC000020B00000207C500008B3
:1011EC00D40100208C01002094500008B05000085D
:1011FC00CC500008E850000804510008384B1B681C
:10120C00384A82FB03125211DB17D31A364A136089
:10121C00334B1B68334A82FB03125211DB17D31A70
:10122C00324A13602E4B00221A602F4B1B681A4651
:10123C002F49304803F0F6FA03469AB24FF47A730A
:10124C002C492D4802F022FC284B1B681A462B49CE
:10125C00284803F0E7FA03469AB24FF47A7325490B
:10126C00254802F013FC38E01D4B1B681D4A82FB1D
:10127C0003125211DB17D31A1B4A1360184B1B684D
:10128C00184A82FB03125211DB17D31A174A136048
:10129C00134B00221A60144B1B681A461849154848
:1012AC0003F0C0FA03469AB24FF47A73114912480C
:1012BC0002F0ECFB0D4B1B681A4612490D4803F06B
:1012CC00B1FA03469AB24FF47A730A490A4802F00B
:1012DC00DDFB02E000BF00E000BF00BF80BD00BF2F
:1012EC00B40000201F85EB51AC000020B0000020A2
:1012FC007C500008D40100208C0100209450000880
:10130C00CC500008E850000880B485B000AF78607D
:10131C002A4B1B687A689A424BD0284B1B68FB609F
:10132C000023FB7214E0254B1B68FA689A4202D129
:10133C00FB7A0133FB72FB7A022B10D07B68DA68E4
:10134C00FB68DB68D21A7B68DA60FB685B68FB6061
:10135C00FB68DA687B68DB689A42E4D900E000BF7E
:10136C007B68DB68002B02D17B6801221A767B68D4
:10137C00FA685A60FB681A687B681A60FB681B681D
:10138C007A685A60FB687A681A600C4B1B68FA68BA
:10139C009A420FD0FB68DA687B68DB68D21AFB686C
:1013AC00DA60FB68DB68002B04D1FB6801221A763B
:1013BC0000E000BF1437BD4680BC7047C40000205D
:1013CC0080B586B000AFF860B9607A60FB68002B1E
:1013DC000DD14349434803F025FA03469AB2C8237A
:1013EC004049414802F052FB4FF0FF3374E00023B8
:1013FC007B6102E07B6901337B617B69272B05D81C
:10140C003A4A7B6913441B78002BF3D17B69282B58
:10141C000DD13749334803F005FA03469AB2C82375
:10142C003049314802F032FB4FF0FF3354E02F4A81
:10143C007B69134401221A702E4B01221A701C2056
:10144C0003F022F903463B61BB682B4AA2FB032342
:10145C00DA083B69DA607B68274AA2FB0323DA08C7
:10146C003B691A613B69FA689A603B697A695A610F
:10147C003B6900221A76214B1B68002B11D03B696B
:10148C005B691A461E49174803F0CCF903469AB219
:10149C00C8231449144802F0F9FA3869FFF734FFED
:1014AC0016E03B695B691A4616490E4803F0BAF917
:1014BC0003469AB2C8230B490B4802F0E7FA3B6982
:1014CC003A691A603B693A695A600C4A3B69136085
:1014DC00084B00221A707B6918461837BD4680BD30
:1014EC0020510008D40100208C0100203C02002077
:1014FC004851000838020020CDCCCCCCC4000020D0
:10150C00645100087C51000880B500AF124B1B6879
:10151C00002B1DD0104B1B681B7E002B18D10F4BC2
:10152C001B78002B14D10C4B1B68DB68002B06D0EE
:10153C00094B1B68DA68084B1B68013ADA60064BEA
:10154C001B68DB68002B03D1034B1B6801221A7646
:10155C0000F0F0F800BF80BDC4000020380200206D
:10156C0080B582B000AF274B01221A7036E0264BB3
:10157C001B689B689847244B1B681B69002B0DD17B
:10158C00214B1B683B60204B1B685B681E4A136039
:10159C003B685B69184600F039F81FE01A4B1B6872
:1015AC007B60194B1A68184B1B685B6812681A60D1
:1015BC00154B1A68144B1B681B6852685A60124B07
:1015CC001B685B68104A13607B6800221A767B6884
:1015DC001A697B68DA607868FFF796FE0A4B1B681D
:1015EC00002B04D0084B1B681B7E002BBFD1054B76
:1015FC0000221A700121002000F068FE00BF08379D
:10160C00BD4680BD38020020C400002080B584B0E7
:10161C0000AF7860134A7B6813441B78002B1DD0F5
:10162C00104A7B68134400221A700F4B1B68FB6036
:10163C0002E0FB685B68FB60FB685B697A689A4256
:10164C00F7D1FB685B68FA6812681A60FB681B6864
:10165C00FA6852685A60F86803F01EF800BF103739
:10166C00BD4680BD3C020020C400002080B483B085
:10167C0000AF7860074B1B68002B05DD054B1A6823
:10168C007B681344034A136000BF0C37BD4680BC13
:10169C00704700BFD800002080B483B000AF7860E2
:1016AC00074B1B687A6892FBF3F3064A1360064BF0
:1016BC0000221A6000BF0C37BD4680BC704700BFCB
:1016CC001C000020D0000020D400002080B483B087
:1016DC0000AF7860074B1B687A6892FBF3F3064AFD
:1016EC001360064B00221A6000BF0C37BD4680BC4D
:1016FC00704700BF1C000020D8000020DC00002038
:10170C0080B483B000AF7860074B1B687A6892FB9B
:10171C00F3F3064A1360064B00221A6000BF0C3725
:10172C00BD4680BC704700BF1C000020E8000020B4
:10173C00EC00002080B400AF294B1B68002B0BDDA4
:10174C00274B1B68013B264A1360254B1B68002B5B
:10175C0002D1244B01221A60234B1B68002B0BDD9A
:10176C00214B1B68013B204A13601F4B1B68002B4D
:10177C0002D11E4B01221A601D4B1B68002B0BDD86
:10178C001B4B1B68013B1A4A1360194B1B68002B3F
:10179C0002D1184B01221A60174B1B68002B0BDD72
:1017AC00154B1B68013B144A1360134B1B68002B31
:1017BC0002D1124B01221A60114B1B68002B0BDD5E
:1017CC000F4B1B68013B0E4A13600D4B1B68002B23
:1017DC0002D10C4B01221A6000BFBD4680BC704781
:1017EC00C8000020CC000020D0000020D400002035
:1017FC00D8000020DC000020E0000020E4000020E5
:10180C00E8000020EC00002080B485B000AF154B40
:10181C009B69144A43F001039361124B9B6903F0DB
:10182C000103BB60BB680F4BDB690E4A43F080536E
:10183C00D3610C4BDB6903F080537B607B680A4BF4
:10184C005B68FB60FB6823F0E063FB60FB6843F0C4
:10185C000073FB60044AFB68536000BF1437BD463D
:10186C0080BC7047001002400000014080B584B07D
:10187C0000AF78607B681B68B3F1804F14D1154BB7
:10188C00DB69144A43F00103D361124BDB6903F0AB
:10189C000103FB60FB68002200211C2000F079FA98
:1018AC001C2000F092FA10E07B681B680A4A9342F5
:1018BC000BD1084BDB69074A43F00203D361054B9C
:1018CC00DB6903F00203BB60BB6800BF1037BD4689
:1018DC0080BD00BF001002400004004080B588B0FD
:1018EC0000AF786007F1100300221A605A609A600A
:1018FC00DA607B681B680F4A934217D10E4B9B69C9
:10190C000D4A43F0040393610B4B9B6903F00403F2
:10191C00FB60FB6840233B6102237B610223FB617C
:10192C0007F110031946054800F01CFB00BF2037D7
:10193C00BD4680BD0004004000100240000801407C
:10194C0080B588B000AF786007F1100300221A60F0
:10195C005A609A60DA607B681B681F4A934237D1E1
:10196C001E4BDB691D4A43F40033D3611B4BDB690F
:10197C0003F40033FB60FB68184B9B69174A43F078
:10198C0004039361154B9B6903F00403BB60BB68B4
:10199C0004233B6102237B610323FB6107F11003EA
:1019AC0019460F4800F0DEFA08233B6100237B61E7
:1019BC000023BB6107F110031946094800F0D2FA65
:1019CC0000220021262000F0E4F9262000F0FDF989
:1019DC0000BF2037BD4680BD0044004000100240CF
:1019EC000008014080B400AFFEE780B400AFFEE712
:1019FC0080B400AFFEE780B400AFFEE780B400AF68
:101A0C00FEE780B400AF00BFBD4680BC704780B419
:101A1C0000AF00BFBD4680BC704780B400AF00BFB4
:101A2C00BD4680BC704780B500AF00F0BFF800BF6A
:101A3C0080BD000080B500AF024801F00DFA00BF78
:101A4C0080BD00BF4401002080B500AF024802F009
:101A5C00A1F800BF80BD00BF8C01002080B586B00E
:101A6C0000AF7860144A154BD31A7B617B693B61DC
:101A7C00134B1B68002B02D1114B124A1A60104BEE
:101A8C001A687B6813443A699A4207D202F0D2FD75
:101A9C0003460C221A604FF0FF3309E0084B1B6819
:101AAC00FB60074B1A687B681344054A1360FB689C
:101ABC0018461837BD4680BD0050002000040000B9
:101ACC00F00000207802002080B400AF00BFBD46BB
:101ADC0080BC7047FFF7F8FF0B480C490C4A0023F9
:101AEC0002E0D458C4500433C4188C42F9D3094AC8
:101AFC00094C002301E013600432A242FBD302F034
:101B0C009FFDFEF71BFC704700000020900000209A
:101B1C00005200089000002078020020FEE7000030
:101B2C0080B500AF084B1B68074A43F010031360E5
:101B3C00032000F023F90F2000F008F8FFF764FEF3
:101B4C000023184680BD00BF0020024080B582B043
:101B5C0000AF7860124B1A68124B1B7819464FF481
:101B6C007A73B3FBF1F3B2FBF3F3184600F03BF9D5
:101B7C000346002B01D001230EE07B680F2B0AD803
:101B8C00002279684FF0FF3000F003F9064A7B68B9
:101B9C001360002300E0012318460837BD4680BDC2
:101BAC0020000020280000202400002080B400AF7A
:101BBC00054B1B781A46054B1B681344034A1360EC
:101BCC0000BFBD4680BC7047280000206402002086
:101BDC0080B400AF024B1B681846BD4680BC7047F2
:101BEC006402002080B485B000AF78607B6803F09D
:101BFC000703FB600C4BDB68BB60BA684FF6FF0356
:101C0C001340BB60FB681A02BB68134343F0BF630D
:101C1C0043F40033BB60044ABB68D36000BF143785
:101C2C00BD4680BC704700BF00ED00E080B400AF43
:101C3C00044BDB681B0A03F007031846BD4680BC47
:101C4C00704700BF00ED00E080B483B000AF0346E6
:101C5C00FB7197F90730002B0BDBFB7903F01F02AC
:101C6C00064997F907305B09012000FA02F241F8A6
:101C7C00232000BF0C37BD4680BC704700E100E05C
:101C8C0080B483B000AF03463960FB7197F907301D
:101C9C00002B0ADB3B68DAB20C4997F907301201CA
:101CAC00D2B20B4483F800230AE03B68DAB208494D
:101CBC00FB7903F00F03043B1201D2B20B441A76EA
:101CCC0000BF0C37BD4680BC704700BF00E100E090
:101CDC0000ED00E080B489B000AFF860B9607A60C4
:101CEC00FB6803F00703FB61FB69C3F10703042BDB
:101CFC0028BF0423BB61FB690433062B02D9FB69A3
:101D0C00033B00E000237B614FF0FF32BB6902FA1A
:101D1C0003F3DA43BB681A407B699A404FF0FF31FA
:101D2C007B6901FA03F3D9437B680B4013431846D4
:101D3C002437BD4680BC704780B582B000AF786058
:101D4C007B68013BB3F1807F01D301230FE00A4A8A
:101D5C007B68013B53600F214FF0FF30FFF790FF82
:101D6C00054B00229A60044B07221A600023184688
:101D7C000837BD4680BD00BF10E000E080B582B0E2
:101D8C0000AF78607868FFF72DFF00BF0837BD46BD
:101D9C0080BD80B586B000AF0346B9607A60FB7336
:101DAC0000237B61FFF742FF78617A68B968786934
:101DBC00FFF790FF024697F90F3011461846FFF7D0
:101DCC005FFF00BF1837BD4680BD80B582B000AF45
:101DDC000346FB7197F907301846FFF735FF00BF34
:101DEC000837BD4680BD80B582B000AF786078689A
:101DFC00FFF7A2FF034618460837BD4680BD80B4E6
:101E0C0085B000AF78600023FB737B6893F82130BA
:101E1C00DBB2022B08D07B6804229A637B68002219
:101E2C0083F82020012320E07B681B681A687B68FC
:101E3C001B6822F00E021A607B681B681A687B68AC
:101E4C001B6822F001021A607B681A6C7B68DB6BE2
:101E5C00012101FA02F25A607B68012283F82120E9
:101E6C007B68002283F82020FB7B18461437BD4684
:101E7C0080BC704780B584B000AF78600023FB73E2
:101E8C007B6893F82130DBB2022B05D07B680422EF
:101E9C009A630123FB7351E07B681B681A687B68AB
:101EAC001B6822F00E021A607B681B681A687B683C
:101EBC001B6822F001021A607B681B68224A93425D
:101ECC0029D07B681B68214A934222D07B681B680F
:101EDC001F4A93421AD07B681B681E4A934212D049
:101EEC007B681B681C4A93420AD07B681B681B4AA0
:101EFC00934202D14FF480130EE04FF080730BE04D
:101F0C004FF4803308E04FF4805305E04FF48073B6
:101F1C0002E0102300E00123114A53607B68012288
:101F2C0083F821207B68002283F820207B685B6B80
:101F3C00002B03D07B685B6B78689847FB7B18465B
:101F4C001037BD4680BD00BF080002401C00024097
:101F5C003000024044000240580002406C00024035
:101F6C000000024080B48BB000AF78603960002371
:101F7C007B6200233B6269E101227B6A02FA03F374
:101F8C00FB613B681B68FA691340BB61BA69FB696A
:101F9C009A4240F058813B685B689A4A93425ED003
:101FAC00984A934275D8984A934258D0964A93428D
:101FBC006FD8964A934252D0944A934269D8944A25
:101FCC0093424CD0924A934263D8924A934246D061
:101FDC00904A93425DD8122B2AD8122B59D801A2C1
:101FEC0052F823F06B200008452000085720000809
:101FFC00992000089F2000089F2000089F200008BF
:10200C009F2000089F2000089F2000089F200008A8
:10201C009F2000089F2000089F2000089F20000898
:10202C009F2000089F2000084D2000086120000818
:10203C00794A934213D02CE03B68DB683B6229E081
:10204C003B68DB6804333B6224E03B68DB680833A5
:10205C003B621FE03B68DB680C333B621AE03B6879
:10206C009B68002B02D104233B6213E03B689B6806
:10207C00012B05D108233B627B68FA691A6109E0E0
:10208C0008233B627B68FA695A6103E000233B62D8
:10209C0000E000BFBB69FF2B01D87B6801E07B68C7
:1020AC0004337B61BB69FF2B02D87B6A9B0002E087
:1020BC007B6A083B9B003B617B691A680F213B697B
:1020CC0001FA03F3DB431A40396A3B6901FA03F363
:1020DC001A437B691A603B685B6803F08053002BE2
:1020EC0000F0B1804D4B9B694C4A43F00103936166
:1020FC004A4B9B6903F00103BB60BB68484A7B6A8F
:10210C009B08023352F82330FB607B6A03F0030315
:10211C009B000F2202FA03F3DB43FA681340FB60C7
:10212C007B68404A934213D07B683F4A93420DD060
:10213C007B683E4A934207D07B683D4A934201D16B
:10214C00032306E0042304E0022302E0012300E061
:10215C0000237A6A02F0030292009340FA68134358
:10216C00FB602F497B6A9B080233FA6841F82320F5
:10217C003B685B6803F48013002B06D02D4B9A68E8
:10218C002C49BB6913438B6006E02A4B9A68BB69E8
:10219C00DB43284913408B603B685B6803F40013F6
:1021AC00002B06D0234BDA682249BB691343CB6062
:1021BC0006E0204BDA68BB69DB431E491340CB6059
:1021CC003B685B6803F40033002B06D0194B5A684C
:1021DC001849BB6913434B6006E0164B5A68BB6940
:1021EC00DB43144913404B603B685B6803F480335A
:1021FC00002B21D00F4B1A680E49BB6913430B609F
:10220C0021E000BF0000321000003110000022104D
:10221C0000002110000012100000111000100240EC
:10222C000000014000080140000C0140001001407A
:10223C0000140140000401400B4B1A68BB69DB43DE
:10224C00094913400B607B6A01337B623B681A6857
:10225C007B6A22FA03F3002B7FF48EAE00BF00BF23
:10226C002C37BD4680BC70470004014080B485B05B
:10227C0000AF78600B467B807B689A687B88134044
:10228C00002B02D00123FB7301E00023FB73FB7BCB
:10229C0018461437BD4680BC704780B483B000AF7D
:1022AC0078600B467B8013467B707B78002B03D0C9
:1022BC007A887B681A6103E07B881A047B681A6150
:1022CC0000BF0C37BD4680BC7047000080B483B0A3
:1022DC0000AF78600B46FB70094B1B69084A23F072
:1022EC0004031361FB78012B01D130BF02E040BF26
:1022FC0020BF20BF00BF0C37BD4680BC704700BF5D
:10230C0000ED00E080B586B000AF78607B68002BF4
:10231C0001D101236CE27B681B6803F00103002BE5
:10232C0000F08780924B5B6803F00C03042B0CD0FD
:10233C008F4B5B6803F00C03082B12D18C4B5B6842
:10234C0003F48033B3F5803F0BD1894B1B6803F446
:10235C000033002B6CD07B685B68002B68D10123A9
:10236C0046E27B685B68B3F5803F06D1804B1B6807
:10237C007F4A43F4803313602EE07B685B68002B4C
:10238C000CD17B4B1B687A4A23F480331360784B57
:10239C001B68774A23F4802313601DE07B685B681D
:1023AC00B3F5A02F0CD1724B1B68714A43F48023F8
:1023BC0013606F4B1B686E4A43F4803313600BE061
:1023CC006B4B1B686A4A23F480331360684B1B68A1
:1023DC00674A23F4802313607B685B68002B13D05F
:1023EC00FFF7F6FB386108E0FFF7F2FB02463B69AA
:1023FC00D31A642B01D90323FAE15D4B1B6803F458
:10240C000033002BF0D014E0FFF7E2FB386108E05A
:10241C00FFF7DEFB02463B69D31A642B01D9032379
:10242C00E6E1534B1B6803F40033002BF0D100E0C2
:10243C0000BF7B681B6803F00203002B63D04C4B7E
:10244C005B6803F00C03002B0BD0494B5B6803F06B
:10245C000C03082B1CD1464B5B6803F48033002B18
:10246C0016D1434B1B6803F00203002B05D07B688D
:10247C001B69012B01D00123BAE13D4B1B6823F0F2
:10248C00F8027B685B69DB00394913430B603AE067
:10249C007B681B69002B20D0364B01221A60FFF79A
:1024AC0097FB386108E0FFF793FB02463B69D31AB0
:1024BC00022B01D903239BE12D4B1B6803F0020374
:1024CC00002BF0D02A4B1B6823F0F8027B685B6969
:1024DC00DB00274913430B6015E0264B00221A60E2
:1024EC00FFF776FB386108E0FFF772FB02463B69A9
:1024FC00D31A022B01D903237AE11D4B1B6803F07D
:10250C000203002BF0D17B681B6803F00803002B3F
:10251C003AD07B689B69002B19D0174B01221A60AB
:10252C00FFF756FB386108E0FFF752FB02463B69A8
:10253C00D31A022B01D903235AE10D4B5B6A03F02A
:10254C000203002BF0D0012000F0CCFA1CE00A4B67
:10255C0000221A60FFF73CFB38610FE0FFF738FBF5
:10256C0002463B69D31A022B08D9032340E100BF72
:10257C000010024000004242800442429E4B5B6AC3
:10258C0003F00203002BE9D17B681B6803F0040302
:10259C00002B00F0A6800023FB75974BDB6903F042
:1025AC008053002B0DD1944BDB69934A43F080533D
:1025BC00D361914BDB6903F08053BB60BB68012393
:1025CC00FB758E4B1B6803F48073002B18D18B4B5F
:1025DC001B688A4A43F480731360FFF7F9FA386179
:1025EC0008E0FFF7F5FA02463B69D31A642B01D9D0
:1025FC000323FDE0814B1B6803F48073002BF0D0A8
:10260C007B68DB68012B06D17B4B1B6A7A4A43F053
:10261C00010313622DE07B68DB68002B0CD1764B39
:10262C001B6A754A23F001031362734B1B6A724ACF
:10263C0023F0040313621CE07B68DB68052B0CD1D0
:10264C006D4B1B6A6C4A43F0040313626A4B1B6AA2
:10265C00694A43F0010313620BE0674B1B6A664A3D
:10266C0023F001031362644B1B6A634A23F00403D7
:10267C0013627B68DB68002B15D0FFF7A9FA386171
:10268C000AE0FFF7A5FA02463B69D31A41F28832F9
:10269C00934201D90323ABE0574B1B6A03F00203AF
:1026AC00002BEED014E0FFF793FA38610AE0FFF745
:1026BC008FFA02463B69D31A41F28832934201D910
:1026CC00032395E04C4B1B6A03F00203002BEED165
:1026DC00FB7D012B05D1484BDB69474A23F0805326
:1026EC00D3617B68DB69002B00F08180424B5B6817
:1026FC0003F00C03082B61D07B68DB69022B46D1FD
:10270C003F4B00221A60FFF763FA386108E0FFF7CD
:10271C005FFA02463B69D31A022B01D9032367E007
:10272C00354B1B6803F00073002BF0D17B681B6AE0
:10273C00B3F5803F08D1304B5B6823F400327B68E3
:10274C009B682D4913434B602B4B5B6823F474122D
:10275C007B68196A7B685B6A0B43274913434B60A0
:10276C00274B01221A60FFF733FA386108E0FFF7B4
:10277C002FFA02463B69D31A022B01D9032337E007
:10278C001D4B1B6803F00073002BF0D02FE01C4B8B
:10279C0000221A60FFF71CFA386108E0FFF718FAFC
:1027AC0002463B69D31A022B01D9032320E0124BBA
:1027BC001B6803F00073002BF0D118E07B68DB6919
:1027CC00012B01D1012313E00B4B5B68FB60FB6811
:1027DC0003F480327B681B6A9A4206D1FB6803F4CF
:1027EC0070127B685B6A9A4201D0012300E00023DF
:1027FC0018461837BD4680BD0010024000700040DE
:10280C006000424280B584B000AF786039607B686C
:10281C00002B01D10123D0E06A4B1B6803F00703A6
:10282C003A689A4210D9674B1B6823F00702654936
:10283C003B6813430B60634B1B6803F007033A6858
:10284C009A4201D00123B8E07B681B6803F00203B5
:10285C00002B20D07B681B6803F00403002B05D0F1
:10286C00594B5B68584A43F4E06353607B681B68C0
:10287C0003F00803002B05D0534B5B68524A43F41A
:10288C0060535360504B5B6823F0F0027B689B688D
:10289C004D4913434B607B681B6803F00103002B0D
:1028AC0040D07B685B68012B07D1474B1B6803F456
:1028BC000033002B15D101237FE07B685B68022B72
:1028CC0007D1414B1B6803F00073002B09D1012386
:1028DC0073E03D4B1B6803F00203002B01D1012375
:1028EC006BE0394B5B6823F003027B685B6836490D
:1028FC0013434B60FFF76CF9F8600AE0FFF768F9D7
:10290C000246FB68D31A41F28832934201D9032361
:10291C0053E02D4B5B6803F00C027B685B689B00FB
:10292C009A42EBD1274B1B6803F007033A689A4293
:10293C0010D2244B1B6823F0070222493B68134337
:10294C000B60204B1B6803F007033A689A4201D0D6
:10295C00012332E07B681B6803F00403002B08D0D2
:10296C00194B5B6823F4E0627B68DB681649134300
:10297C004B607B681B6803F00803002B09D0124BDB
:10298C005B6823F460527B681B69DB000E491343C0
:10299C004B6000F021F802460B4B5B681B0903F0FF
:1029AC000F030A49CB5C22FA03F3094A1360094B63
:1029BC001B681846FFF7CAF8002318461037BD46A7
:1029CC0080BD00BF0020024000100240985100085A
:1029DC00200000202400002080B487B000AF00232A
:1029EC00FB600023BB6000237B6100237B60002322
:1029FC003B611E4B5B68FB60FB6803F00C03042B14
:102A0C0002D0082B03D027E0194B3B6127E0FB6871
:102A1C009B0C03F00F03174AD35C7B60FB6803F439
:102A2C008033002B10D0114B5B685B0C03F001035F
:102A3C00114AD35CBB607B680D4A02FB03F2BB6896
:102A4C00B2FBF3F37B6104E07B680C4A02FB03F3FB
:102A5C007B617B693B6102E0054B3B6100BF3B69DD
:102A6C0018461C37BD4680BC704700BF00100240A2
:102A7C0000127A00B0510008C051000800093D0056
:102A8C0080B400AF024B1B681846BD4680BC704733
:102A9C002000002080B500AFFFF7F2FF0246054B87
:102AAC005B681B0A03F007030349CB5C22FA03F3B0
:102ABC00184680BD00100240A851000880B500AF38
:102ACC00FFF7DEFF0246054B5B68DB0A03F00703EA
:102ADC000349CB5C22FA03F3184680BD0010024078
:102AEC00A851000880B485B000AF78600A4B1B6811
:102AFC000A4AA2FB03235B0A7A6802FB03F3FB601E
:102B0C0000BFFB685A1EFA60002BF9D100BF00BF52
:102B1C001437BD4680BC704720000020D34D621096
:102B2C0080B582B000AF78607B68002B01D10123A7
:102B3C0041E07B6893F83D30DBB2002B06D17B681B
:102B4C00002283F83C207868FEF790FE7B68022216
:102B5C0083F83D207B681A687B680433194610465D
:102B6C0000F030FC7B68012283F846207B68012250
:102B7C0083F83E207B68012283F83F207B6801228A
:102B8C0083F840207B68012283F841207B68012276
:102B9C0083F842207B68012283F843207B68012262
:102BAC0083F844207B68012283F845207B6801224E
:102BBC0083F83D20002318460837BD4680BD000031
:102BCC0080B485B000AF78607B6893F83D30DBB2A1
:102BDC00012B01D001233AE07B68022283F83D20CF
:102BEC007B681B68DA687B681B6842F00102DA605C
:102BFC007B681B68184A93420ED07B681B68B3F144
:102C0C00804F09D07B681B68144A934204D07B68C0
:102C1C001B68134A934211D17B681B689B6803F0B5
:102C2C000703FB60FB68062B10D07B681B681A68D7
:102C3C007B681B6842F001021A6007E07B681B6826
:102C4C001A687B681B6842F001021A600023184660
:102C5C001437BD4680BC7047002C01400004004076
:102C6C000008004080B582B000AF78607B68002B14
:102C7C0001D1012341E07B6893F83D30DBB2002B9E
:102C8C0006D17B68002283F83C20786800F039F884
:102C9C007B68022283F83D207B681A687B680433CA
:102CAC001946104600F08EFB7B68012283F8462003
:102CBC007B68012283F83E207B68012283F83F2049
:102CCC007B68012283F840207B68012283F8412035
:102CDC007B68012283F842207B68012283F8432021
:102CEC007B68012283F844207B68012283F845200D
:102CFC007B68012283F83D20002318460837BD4627
:102D0C0080BD80B483B000AF786000BF0C37BD4687
:102D1C0080BC704780B584B000AF786039603B6888
:102D2C00002B09D17B6893F83E30DBB2012B14BF2A
:102D3C0001230023DBB222E03B68042B09D17B6822
:102D4C0093F83F30DBB2012B14BF01230023DBB21D
:102D5C0015E03B68082B09D17B6893F84030DBB257
:102D6C00012B14BF01230023DBB208E07B6893F82E
:102D7C004130DBB2012B14BF01230023DBB2002B4B
:102D8C0001D001235EE03B68002B04D17B6802225A
:102D9C0083F83E2013E03B68042B04D17B680222AD
:102DAC0083F83F200BE03B68082B04D17B680222A0
:102DBC0083F8402003E07B68022283F841207B6883
:102DCC001B6801223968184600F07CFD7B681B6883
:102DDC001E4A934207D17B681B685A6C7B681B6840
:102DEC0042F400425A647B681B68184A93420ED026
:102DFC007B681B68B3F1804F09D07B681B68144A51
:102E0C00934204D07B681B68124A934211D17B68B1
:102E1C001B689B6803F00703FB60FB68062B10D054
:102E2C007B681B681A687B681B6842F001021A6099
:102E3C0007E07B681B681A687B681B6842F001021C
:102E4C001A60002318461037BD4680BD002C014087
:102E5C00000400400008004080B582B000AF7860EC
:102E6C007B681B681B6903F00203022B22D17B6871
:102E7C001B68DB6803F00203022B1BD17B681B6809
:102E8C006FF002021A617B6801221A777B681B685B
:102E9C009B6903F00303002B03D0786800F076FAEB
:102EAC0005E0786800F069FA786800F078FA7B68D9
:102EBC0000221A777B681B681B6903F00403042B40
:102ECC0022D17B681B68DB6803F00403042B1BD145
:102EDC007B681B686FF004021A617B6802221A7708
:102EEC007B681B689B6903F44073002B03D07868E4
:102EFC0000F04CFA05E0786800F03FFA786800F0D2
:102F0C004EFA7B6800221A777B681B681B6903F0FA
:102F1C000803082B22D17B681B68DB6803F00803CD
:102F2C00082B1BD17B681B686FF008021A617B6849
:102F3C0004221A777B681B68DB6903F00303002B00
:102F4C0003D0786800F022FA05E0786800F015FAF2
:102F5C00786800F024FA7B6800221A777B681B687B
:102F6C001B6903F01003102B22D17B681B68DB68F4
:102F7C0003F01003102B1BD17B681B686FF0100241
:102F8C001A617B6808221A777B681B68DB6903F47B
:102F9C004073002B03D0786800F0F8F905E07868EE
:102FAC0000F0EBF9786800F0FAF97B6800221A77E8
:102FBC007B681B681B6903F00103012B0ED17B6836
:102FCC001B68DB6803F00103012B07D17B681B68CE
:102FDC006FF001021A617868FDF776FB7B681B685D
:102FEC001B6903F08003802B0ED17B681B68DB68A8
:102FFC0003F08003802B07D17B681B686FF0800285
:10300C001A61786800F0E9FC7B681B681B6903F0A7
:10301C004003402B0ED17B681B68DB6803F0400338
:10302C00402B07D17B681B686FF040021A617868EF
:10303C0000F0BEF97B681B681B6903F02003202B92
:10304C000ED17B681B68DB6803F02003202B07D1B3
:10305C007B681B686FF020021A61786800F0B4FC82
:10306C0000BF0837BD4680BD80B586B000AFF860A4
:10307C00B9607A600023FB75FB6893F83C30012B38
:10308C0001D10223AEE0FB68012283F83C207B686F
:10309C000C2B00F29F8001A252F823F0DD300008C7
:1030AC00E1310008E1310008E13100081D31000870
:1030BC00E1310008E1310008E13100085F3100081E
:1030CC00E1310008E1310008E13100089F310008CE
:1030DC00FB681B68B968184600F0D6F9FB681B68DA
:1030EC009A69FB681B6842F008029A61FB681B68CE
:1030FC009A69FB681B6822F004029A61FB681B68E2
:10310C009969BB681A69FB681B680A439A6164E099
:10311C00FB681B68B968184600F01CFAFB681B6852
:10312C009A69FB681B6842F400629A61FB681B6831
:10313C009A69FB681B6822F480629A61FB681B68C1
:10314C009969BB681B691A02FB681B680A439A6180
:10315C0043E0FB681B68B968184600F065FAFB6829
:10316C001B68DA69FB681B6842F00802DA61FB68CD
:10317C001B68DA69FB681B6822F00402DA61FB68E1
:10318C001B68D969BB681A69FB681B680A43DA615A
:10319C0023E0FB681B68B968184600F0AFFAFB68BF
:1031AC001B68DA69FB681B6842F40062DA61FB6831
:1031BC001B68DA69FB681B6822F48062DA61FB68C1
:1031CC001B68D969BB681B691A02FB681B680A4338
:1031DC00DA6102E00123FB7500BFFB68002283F873
:1031EC003C20FB7D18461837BD4680BD80B584B0A9
:1031FC0000AF786039600023FB737B6893F83C3038
:10320C00012B01D10223B4E07B68012283F83C201E
:10321C007B68022283F83D207B681B689B68BB603F
:10322C00BB6823F07703BB60BB6823F47F43BB60B0
:10323C007B681B68BA689A603B681B68B3F5005FD3
:10324C003ED0B3F5005F00F28780B3F5805F00F0ED
:10325C008680B3F5805F7FD8702B1AD0702B7BD80B
:10326C00602B50D0602B77D8502B3CD0502B73D880
:10327C00402B58D0402B6FD8302B64D0302B6BD8D0
:10328C00202B60D0202B67D8002B5CD0102B5AD071
:10329C0062E07B6818683B6899683B685A683B68D1
:1032AC00DB6800F0F0FA7B681B689B68BB60BB684E
:1032BC0043F07703BB607B681B68BA689A604FE089
:1032CC007B6818683B6899683B685A683B68DB68A0
:1032DC0000F0D9FA7B681B689A687B681B6842F41B
:1032EC0080429A603CE07B6818683B6859683B6890
:1032FC00DB681A4600F050FA7B681B6850211846B0
:10330C0000F0A7FA2CE07B6818683B6859683B68AA
:10331C00DB681A4600F06EFA7B681B686021184661
:10332C0000F097FA1CE07B6818683B6859683B68AA
:10333C00DB681A4600F030FA7B681B68402118469F
:10334C0000F087FA0CE07B681A683B681B6819462A
:10335C00104600F07EFA03E00123FB7300E000BF8F
:10336C007B68012283F83D207B68002283F83C2097
:10337C00FB7B18461037BD4680BD80B483B000AFD0
:10338C00786000BF0C37BD4680BC704780B483B0FA
:10339C0000AF786000BF0C37BD4680BC704780B46E
:1033AC0083B000AF786000BF0C37BD4680BC70475F
:1033BC0080B483B000AF786000BF0C37BD4680BCD2
:1033CC007047000080B485B000AF786039607B68CE
:1033DC001B68FB607B68294A93420BD07B68B3F176
:1033EC00804F07D07B68264A934203D07B68254ADE
:1033FC00934208D1FB6823F07003FB603B685B6869
:10340C00FA681343FB607B681C4A93420BD07B68C1
:10341C00B3F1804F07D07B68194A934203D07B6885
:10342C00184A934208D1FB6823F44073FB603B6855
:10343C00DB68FA681343FB60FB6823F080023B688F
:10344C005B691343FB607B68FA681A603B689A6897
:10345C007B68DA623B681A687B689A627B68074A09
:10346C00934203D13B681A697B681A637B6801221B
:10347C005A6100BF1437BD4680BC7047002C014018
:10348C00000400400008004080B487B000AF7860B2
:10349C0039607B681B6A7B617B681B6A23F00102C5
:1034AC007B681A627B685B683B617B689B69FB602D
:1034BC00FB6823F07003FB60FB6823F00303FB60E5
:1034CC003B681B68FA681343FB607B6923F00203BB
:1034DC007B613B689B687A6913437B617B681C4A00
:1034EC0093420CD17B6923F008037B613B68DB685A
:1034FC007A6913437B617B6923F004037B617B68EE
:10350C00134A934211D13B6923F480733B613B69AD
:10351C0023F400733B613B685B693A6913433B617D
:10352C003B689B693A6913433B617B683A695A6013
:10353C007B68FA689A613B685A687B685A637B6857
:10354C007A691A6200BF1C37BD4680BC704700BF49
:10355C00002C014080B487B000AF786039607B6884
:10356C001B6A7B617B681B6A23F010027B681A6202
:10357C007B685B683B617B689B69FB60FB6823F441
:10358C00E043FB60FB6823F44073FB603B681B6803
:10359C001B02FA681343FB607B6923F020037B61F9
:1035AC003B689B681B017A6913437B617B681D4AEE
:1035BC0093420DD17B6923F080037B613B68DB6810
:1035CC001B017A6913437B617B6923F040037B61A8
:1035DC007B68144A934213D13B6923F480633B61AB
:1035EC003B6923F400633B613B685B699B003A6970
:1035FC0013433B613B689B699B003A6913433B61F6
:10360C007B683A695A607B68FA689A613B685A68C9
:10361C007B689A637B687A691A6200BF1C37BD4667
:10362C0080BC7047002C014080B487B000AF78603C
:10363C0039607B681B6A7B617B681B6A23F4807230
:10364C007B681A627B685B683B617B68DB69FB604B
:10365C00FB6823F07003FB60FB6823F00303FB6043
:10366C003B681B68FA681343FB607B6923F40073A7
:10367C007B613B689B681B027A6913437B617B68A7
:10368C001D4A93420DD17B6923F400637B613B6837
:10369C00DB681B027A6913437B617B6923F48063CB
:1036AC007B617B68144A934213D13B6923F48053AA
:1036BC003B613B6923F400533B613B685B691B0135
:1036CC003A6913433B613B689B691B013A6913439D
:1036DC003B617B683A695A607B68FA68DA613B68DF
:1036EC005A687B68DA637B687A691A6200BF1C3798
:1036FC00BD4680BC704700BF002C014080B487B031
:10370C0000AF786039607B681B6A3B617B681B6A21
:10371C0023F480527B681A627B685B687B617B68F0
:10372C00DB69FB60FB6823F4E043FB60FB6823F47C
:10373C004073FB603B681B681B02FA681343FB6019
:10374C003B6923F400533B613B689B681B033A695C
:10375C0013433B617B680F4A934209D17B6923F485
:10376C0080437B613B685B699B017A6913437B6196
:10377C007B687A695A607B68FA68DA613B685A68D8
:10378C007B681A647B683A691A6200BF1C37BD46B5
:10379C0080BC7047002C014080B487B000AFF8604B
:1037AC00B9607A60FB681B6A7B61FB681B6A23F05B
:1037BC000102FB681A62FB689B693B613B6923F061
:1037CC00F0033B617B681B013A6913433B617B69E6
:1037DC0023F00A037B617A69BB6813437B61FB6846
:1037EC003A699A61FB687A691A6200BF1C37BD4658
:1037FC0080BC704780B487B000AFF860B9607A6065
:10380C00FB681B6A7B61FB681B6A23F01002FB6878
:10381C001A62FB689B693B613B6923F470433B6113
:10382C007B681B033A6913433B617B6923F0A0035C
:10383C007B61BB681B017A6913437B61FB683A6946
:10384C009A61FB687A691A6200BF1C37BD4680BC5E
:10385C00704780B485B000AF786039607B689B6836
:10386C00FB60FB6823F07003FB603A68FB68134352
:10387C0043F00703FB607B68FA689A6000BF14375B
:10388C00BD4680BC704780B487B000AFF860B960AB
:10389C007A603B60FB689B687B617B6923F47F43A8
:1038AC007B613B681A027B681A43BB6813437A69D5
:1038BC0013437B61FB687A699A6000BF1C37BD4675
:1038CC0080BC704780B487B000AFF860B9607A6094
:1038DC00BB6803F01F03012202FA03F37B61FB6850
:1038EC001A6A7B69DB431A40FB681A62FB681A6A26
:1038FC00BB6803F01F03796801FA03F31A43FB68F2
:10390C001A6200BF1C37BD4680BC704780B485B0BE
:10391C0000AF786039607B6893F83C30012B01D1A3
:10392C00022346E07B68012283F83C207B6802225C
:10393C0083F83D207B681B685B68FB607B681B68B9
:10394C009B68BB60FB6823F07003FB603B681B68E3
:10395C00FA681343FB607B681B68FA685A607B68E3
:10396C001B68164A93420ED07B681B68B3F1804FDC
:10397C0009D07B681B68124A934204D07B681B6891
:10398C00104A93420CD1BB6823F08003BB603B68A8
:10399C005B68BA681343BB607B681B68BA689A6043
:1039AC007B68012283F83D207B68002283F83C2051
:1039BC00002318461437BD4680BC7047002C0140CC
:1039CC00000400400008004080B483B000AF786071
:1039DC0000BF0C37BD4680BC704780B483B000AFCD
:1039EC00786000BF0C37BD4680BC704780B582B094
:1039FC0000AF78607B68002B01D1012342E07B682B
:103A0C0093F84130DBB2002B06D17B68002283F89F
:103A1C0040207868FDF794FF7B68242283F84120CE
:103A2C007B681B68DA687B681B6822F40052DA60DA
:103A3C00786800F071FD7B681B681A697B681B68ED
:103A4C0022F490421A617B681B685A697B681B6878
:103A5C0022F02A025A617B681B68DA687B681B6853
:103A6C0042F40052DA607B6800225A647B682022A0
:103A7C0083F841207B68202283F842207B68002257
:103A8C005A63002318460837BD4680BD80B58AB0FE
:103A9C0002AFF860B9603B601346FB8000237B618A
:103AAC00FB6893F84130DBB2202B6DD1BB68002B47
:103ABC0002D0FB88002B01D1012366E0FB680022B9
:103ACC005A64FB68212283F84120FEF781F8786163
:103ADC00FB68FA889A84FB68FA88DA84FB689B682E
:103AEC00B3F5805F08D1FB681B69002B04D1002360
:103AFC00FB61BB68BB6103E0BB68FB610023BB617E
:103B0C002AE03B6800937B6900228021F86800F072
:103B1C00F9FA0346002B01D0032336E0FB69002B96
:103B2C000BD1BB691B881A46FB681B68C2F30802E1
:103B3C005A60BB690233BB6107E0FB691A78FB680A
:103B4C001B685A60FB690133FB61FB68DB8C9BB221
:103B5C00013B9AB2FB68DA84FB68DB8C9BB2002BCE
:103B6C00CFD13B6800937B6900224021F86800F0BC
:103B7C00C9FA0346002B01D0032306E0FB68202280
:103B8C0083F84120002300E0022318462037BD466D
:103B9C0080BD000080B5BAB000AF78607B681B6850
:103BAC001B68C7F8E4307B681B68DB68C7F8E0303B
:103BBC007B681B685B69C7F8DC300023C7F8D8301A
:103BCC000023C7F8D430D7F8E43003F00F03C7F85C
:103BDC00D830D7F8D830002B0FD1D7F8E43003F019
:103BEC002003002B09D0D7F8E03003F02003002B82
:103BFC0003D0786800F0D1FB5BE2D7F8D830002B0B
:103C0C0000F0DE80D7F8DC3003F00103002B06D186
:103C1C00D7F8E03003F49073002B00F0D180D7F884
:103C2C00E43003F00103002B0BD0D7F8E03003F4A1
:103C3C008073002B05D07B685B6C43F001027B68C2
:103C4C005A64D7F8E43003F00403002B0BD0D7F8F8
:103C5C00DC3003F00103002B05D07B685B6C43F078
:103C6C0002027B685A64D7F8E43003F00203002B9D
:103C7C000BD0D7F8DC3003F00103002B05D07B68A8
:103C8C005B6C43F004027B685A64D7F8E43003F0B1
:103C9C000803002B11D0D7F8E03003F02003002BE1
:103CAC0005D1D7F8DC3003F00103002B05D07B687D
:103CBC005B6C43F008027B685A647B685B6C002B7E
:103CCC0000F0F281D7F8E43003F02003002B08D089
:103CDC00D7F8E03003F02003002B02D0786800F016
:103CEC005CFB7B681B685B6903F04003002B14BF13
:103CFC0001230023DBB2C7F8D4307B685B6C03F084
:103D0C000803002B03D1D7F8D430002B4FD07868A0
:103D1C0000F066FA7B681B685B6903F04003002BBC
:103D2C0041D07B681B681433C7F89C30D7F89C30A3
:103D3C0053E8003FC7F89830D7F8983023F0400389
:103D4C00C7F8D0307B681B681433D7F8D020C7F87D
:103D5C00A820C7F8A430D7F8A410D7F8A82041E8B9
:103D6C000023C7F8A030D7F8A030002BD9D17B683E
:103D7C00DB6B002B13D07B68DB6B7E4A5A637B6852
:103D8C00DB6B1846FEF776F80346002B16D07B68E3
:103D9C00DB6B5B6B7A68D26B104698470EE07868E9
:103DAC0000F09CF90AE0786800F098F906E0786871
:103DBC0000F094F97B6800225A6475E100BF73E14E
:103DCC007B681B6B012B40F04F81D7F8E43003F07C
:103DDC001003002B00F04881D7F8E03003F01003FB
:103DEC00002B00F041810023BB607B681B681B68C3
:103DFC00BB607B681B685B68BB60BB687B681B68CF
:103E0C005B6903F04003002B00F0B6807B68DB6B32
:103E1C001B685B68A7F8BE30B7F8BE30002B00F00B
:103E2C0045817B689B8DB7F8BE209A4280F03E811D
:103E3C007B68B7F8BE20DA857B68DB6B9B69202B2F
:103E4C0000F088807B681B680C33C7F88830D7F883
:103E5C00883053E8003FC7F88430D7F8843023F417
:103E6C008073C7F8B8307B681B680C33D7F8B82060
:103E7C00C7F89420C7F89030D7F89010D7F8942052
:103E8C0041E80023C7F88C30D7F88C30002BD9D1FF
:103E9C007B681B6814337B677B6F53E8003F3B6781
:103EAC003B6F23F00103C7F8B4307B681B681433F5
:103EBC00D7F8B420C7F88020FB67F96FD7F88020BB
:103ECC0041E80023BB67BB6F002BE1D17B681B680B
:103EDC0014333B663B6E53E8003FFB65FB6D23F0F0
:103EEC004003C7F8B0307B681B681433D7F8B02098
:103EFC00FA66BB66B96EFA6E41E800237B667B6E90
:103F0C00002BE3D17B68202283F842207B680022BF
:103F1C001A637B681B680C33FB64FB6C53E8003F33
:103F2C00BB64BB6C23F01003C7F8AC307B681B6818
:103F3C000C33D7F8AC20BA657B65796DBA6D41E866
:103F4C0000233B653B6D002BE3D17B68DB6B184694
:103F5C00FDF755FF7B6802225A637B689A8D7B685C
:103F6C00DB8D9BB2D31A9BB21946786800F0BFF870
:103F7C009CE000BFB14200087B689A8D7B68DB8DAA
:103F8C009BB2D31AA7F8CE307B68DB8D9BB2002B8B
:103F9C0000F08E80B7F8CE30002B00F089807B6863
:103FAC001B680C33BB63BB6B53E8003F7B637B6BC1
:103FBC0023F49073C7F8C8307B681B680C33D7F8B0
:103FCC00C8207A643B64396C7A6C41E80023FB634B
:103FDC00FB6B002BE3D17B681B6814337B627B6A21
:103FEC0053E8003F3B623B6A23F00103C7F8C4303F
:103FFC007B681B681433D7F8C4203A63FB62F96AF8
:10400C003A6B41E80023BB62BB6A002BE3D17B68AF
:10401C00202283F842207B6800221A637B681B688D
:10402C000C333B613B6953E8003FFB60FB6823F0BA
:10403C001003C7F8C0307B681B680C33D7F8C0205E
:10404C00FA61BB61B969FA6941E800237B617B695C
:10405C00002BE3D17B6802225A63B7F8CE301946A5
:10406C00786800F044F823E0D7F8E43003F08003DC
:10407C00002B09D0D7F8E03003F08003002B03D0DD
:10408C00786800F023F914E0D7F8E43003F040032B
:10409C00002B0ED0D7F8E03003F04003002B08D0F3
:1040AC00786800F062F904E000BF02E000BF00E0B5
:1040BC0000BFE837BD4680BD80B483B000AF7860E8
:1040CC0000BF0C37BD4680BC704780B483B000AFD6
:1040DC00786000BF0C37BD4680BC704780B483B09D
:1040EC0000AF786000BF0C37BD4680BC704780B411
:1040FC0083B000AF78600B467B8000BF0C37BD46A9
:10410C0080BC704780B590B000AFF860B9603B6080
:10411C001346FB7150E0BB6CB3F1FF3F4CD0BB6C52
:10412C00002B07D0FDF754FD02463B68D31ABA6C3E
:10413C009A4241D2FB681B680C33BB62BB6A53E8E2
:10414C00003F7B627B6A23F4D073FB63FB681B68C4
:10415C000C33FA6B7A633B63396B7A6B41E800235F
:10416C00FB62FB6A002BE5D1FB681B6814337B6197
:10417C007B6953E8003F3B613B6923F00103BB6360
:10418C00FB681B681433BA6B3A62FB61F9693A6AD3
:10419C0041E80023BB61BB69002BE5D1FB68202201
:1041AC0083F84120FB68202283F84220FB68002220
:1041BC0083F8402003230FE0FB681B681A68BB6878
:1041CC001340BA689A420CBF01230023DBB21A4693
:1041DC00FB799A429FD0002318464037BD4680BDDC
:1041EC0080B495B000AF78607B681B680C337B6340
:1041FC007B6B53E8003F3B633B6B23F49073FB6496
:10420C007B681B680C33FA6C3A64FB63F96B3A6C91
:10421C0041E80023BB63BB6B002BE5D17B681B68BB
:10422C0014333B623B6A53E8003FFB61FB6923F0AC
:10423C000103BB647B681B681433BA6CFA62BB6203
:10424C00B96AFA6A41E800237B627B6A002BE5D1EC
:10425C007B681B6B012B19D17B681B680C33FB60D3
:10426C00FB6853E8003FBB60BB6823F010037B6422
:10427C007B681B680C337A6CBA617B617969BA69AB
:10428C0041E800233B613B69002BE5D17B68202290
:10429C0083F842207B6800221A6300BF5437BD4666
:1042AC0080BC704780B584B000AF78607B685B6A77
:1042BC00FB60FB680022DA85FB680022DA84F86870
:1042CC00FFF70CFF00BF1037BD4680BD80B485B032
:1042DC0000AF78607B6893F84130DBB2212B3ED184
:1042EC007B689B68B3F5805F14D17B681B69002BDE
:1042FC0010D17B681B6AFB60FB681B881A467B68C5
:10430C001B68C2F308025A607B681B6A9A1C7B68A4
:10431C001A6208E07B681B6A591C7A6811621A7869
:10432C007B681B685A607B68DB8C9BB2013B9BB241
:10433C007A681946D184002B0FD17B681B68DA6828
:10434C007B681B6822F08002DA607B681B68DA6885
:10435C007B681B6842F04002DA60002300E0022315
:10436C0018461437BD4680BC704780B582B000AF8C
:10437C0078607B681B68DA687B681B6822F04002F7
:10438C00DA607B68202283F841207868FFF794FE7E
:10439C00002318460837BD4680BD80B58CB000AFF1
:1043AC0078607B6893F84230DBB2222B40F0AE8011
:1043BC007B689B68B3F5805F17D17B681B69002B0A
:1043CC0013D10023FB627B689B6ABB627B681B6812
:1043DC005B689BB2C3F308039AB2BB6A1A807B6812
:1043EC009B6A9A1C7B689A6226E07B689B6AFB62DC
:1043FC000023BB627B689B68B3F5805F07D07B684A
:10440C009B68002B0AD17B681B69002B06D17B684B
:10441C001B685B68DAB2FB6A1A7008E07B681B6881
:10442C005B68DBB203F07F03DAB2FB6A1A707B685D
:10443C009B6A5A1C7B689A627B68DB8D9BB2013B42
:10444C009BB27A681946D185002B5DD17B681B68BD
:10445C00DA687B681B6822F02002DA607B681B68D4
:10446C00DA687B681B6822F48072DA607B681B68F0
:10447C005A697B681B6822F001025A617B68202212
:10448C0083F842207B6800225A637B681B6B012BEC
:10449C0035D17B6800221A637B681B680C337B6107
:1044AC007B6953E8003F3B613B6923F010037B625F
:1044BC007B681B680C337A6A3A62FB61F9693A6A69
:1044CC0041E80023BB61BB69002BE5D17B681B680D
:1044DC001B6803F01003102B0AD10023FB607B68D0
:1044EC001B681B68FB607B681B685B68FB60FB6878
:1044FC007B689B8D19467868FFF7F9FD02E07868B8
:10450C00FFF7E3FD002302E0002300E0022318463E
:10451C003037BD4680BD000080B584B000AF7860F8
:10452C007B681B681B6923F440517B68DA687B68E5
:10453C001B680A431A617B689A687B681B691A437B
:10454C007B685B691343BB607B681B68DB6823F487
:10455C00B05323F00C037A681268B9680B43D3602C
:10456C007B681B685B6923F440717B689A697B6884
:10457C001B680A435A617B681B682C4A934203D11F
:10458C00FEF79CFAF86002E0FEF784FAF860FA682D
:10459C0013469B0013449A001A447B685B689B008B
:1045AC00B2FBF3F3224AA2FB03235B091901FA685D
:1045BC0013469B0013449A001A447B685B689B006B
:1045CC00B2FBF3F21A4BA3FB02035B09642000FB62
:1045DC0003F3D31A1B013233154AA2FB03235B09E5
:1045EC0003F0F0031944FA6813469B0013449A0035
:1045FC001A447B685B689B00B2FBF3F20C4BA3FB89
:10460C0002035B09642000FB03F3D31A1B01323352
:10461C00074AA2FB03235B0903F00F027B681B68AC
:10462C000A449A6000BF1037BD4680BD0038014077
:10463C001F85EB51014B1868704700BF2C00002000
:10464C0070B500260C4D0D4C641BA410A64209D16C
:10465C0000F06CFC00260A4D0A4C641BA410A64208
:10466C0005D170BD55F8043B98470136EEE755F877
:10467C00043B98470136F2E7F8510008F85100085E
:10468C00F8510008FC510008024B0146186800F074
:10469C005FB800BF2C000020024B0146186800F0E8
:1046AC000BB800BF2C00002003460244934200D1FB
:1046BC00704703F8011BF9E738B50546002943D0CC
:1046CC0051F8043C0C1F002BB8BFE41800F0CAF8DA
:1046DC001E4A1368104633B9636014602846BDE85F
:1046EC00384000F0C5B8A3420AD921686218934239
:1046FC0001BF1A685B685218226063600460EDE7C2
:10470C001A465B680BB1A342FAD911685018A04243
:10471C000BD120680144501883421160DED1186817
:10472C005B68014411605360D8E702D90C232B60FD
:10473C00D4E7206821188B4201BF19685B680918FF
:10474C00216063605460C9E738BD00BFF4000020ED
:10475C00F8B5CD1C25F0030508350C2D38BF0C25FC
:10476C00002D064601DBA94203D90C23336000203F
:10477C00F8BD00F077F821490A6814469CB9204F1F
:10478C003B6823B92146304600F03CF83860294696
:10479C00304600F037F8431C23D10C2330463360ED
:1047AC0000F066F8E3E723685B1B17D40B2B03D9E7
:1047BC0023601C44256004E06368A2420CBF0B60BC
:1047CC005360304600F054F804F10B00231D20F028
:1047DC000700C21ACCD01B1AA350C9E72246646842
:1047EC00CCE7C41C24F00304A042E3D0211A3046C9
:1047FC0000F008F80130DDD1CFE700BFF400002055
:10480C00F800002038B50023054D044608462B60FF
:10481C00FDF724F9431C02D12B6803B1236038BD8A
:10482C00680200200EB46FF0004100B59CB01DABC7
:10483C0002900690079104910848094953F8042BFB
:10484C000591006802A9019300F074F80022029B04
:10485C001A701CB05DF804EB03B070472C000020FC
:10486C000802FFFF014800F0FBBA00BF70020020F5
:10487C00014800F0F6BA00BF700200202DE9F047A5
:10488C008E6882469E420C4690461F4638D88A89CE
:10489C0012F4906F32D0256809690133A5EB010938
:1048AC0065694B4405EB450505EBD5756D109D42CF
:1048BC0038BF1D46530531D52946FFF749FF06463B
:1048CC0050B90C234FF0FF30CAF80030A38943F0E5
:1048DC004003A381BDE8F0874A46216900F0D0FA75
:1048EC00A38923F4906343F08003A38126614E4493
:1048FC0026603E466561A5EB0905A560BE4200D960
:10490C003E4632464146206800F0C8FAA368226849
:10491C009B1B32440020A3602260DBE72A4600F098
:10492C00D7FA06460028E1D150462169FFF7C4FEAC
:10493C00C7E700002DE9F04F98468B8907461B0608
:10494C000D4614469DB00ED50B6963B94021FFF797
:10495C00FFFE2860286120B90C233B604FF0FF302C
:10496C00D1E040236B610023099320238DF829307B
:10497C0030234FF00109CDF80C80DFF8A4818DF8BD
:10498C002A3023469A4613F8012B0AB1252AF9D16D
:10499C00BAEB040B0BD05B46224629463846FFF790
:1049AC006DFF013000F0AA80099A5A4409929AF8D6
:1049BC000030002B00F0A28000234FF0FF32CDE935
:1049CC0005230AF1010A049307938DF853301A93C7
:1049DC005446052214F8011B514800F043FA049A7E
:1049EC00D8B9D00644BF20238DF85330110744BFEB
:1049FC002B238DF853309AF800302A2B15D05446BF
:104A0C0000204FF00A0C079A214611F8013B303B6D
:104A1C00092B4ED9B0B1079214E0A0EB080309FAA8
:104A2C0003F31343A2460493D2E7039B191D1B689F
:104A3C000391002BBBBF5B4242F00202079307932A
:104A4C00B8BF049223782E2B0CD163782A2B35D146
:104A5C00039B02341A1D1B680392002BB8BF4FF046
:104A6C00FF330593DFF8C8A003225046217800F0ED
:104A7C00F9F940B14023A0EB0A0003FA00F0049BC3
:104A8C0001340343049314F8011B062225488DF8C6
:104A9C00281000F0E7F9002838D0234B1BBB039BF0
:104AAC00073323F0070308330393099B334409931B
:104ABC0067E70C4601200CFB0232A5E700234FF000
:104ACC000A0C194601340593204610F8012B303A94
:104ADC00092A03D9002BC5D00591C3E7044601234D
:104AEC000CFB0121F0E703AB00932A4638460F4B31
:104AFC0004A9AFF30080421C0646D6D1AB895B06F5
:104B0C003FF52CAF09981DB0BDE8F08F03AB0093B7
:104B1C002A463846054B04A900F07CF8EBE700BFA9
:104B2C00C2510008CC510008000000008948000860
:104B3C00C85100082DE9F047164699468A680B695A
:104B4C0007469342B8BF1346336091F843200C4696
:104B5C00DDF820800AB1013333602368990642BF27
:104B6C00336802333360256815F0060506D104F16D
:104B7C00190AE36832689B1AAB4228DC94F843208C
:104B8C00131E226818BF012392062DD449463846BD
:104B9C0004F14302C047013020D02368E56803F0DC
:104BAC000603042B18BF002532684FF00006A368DB
:104BBC0008BFAD1A226908BF25EAE5759342C4BF48
:104BCC009B1AED181A34B5421AD1002008E00123C3
:104BDC00524649463846C047013003D14FF0FF30AA
:104BEC00BDE8F0870135C4E73020E11881F84300B7
:104BFC005A1C94F845102244023382F84310C5E73E
:104C0C000123224649463846C0470130E6D00136DA
:104C1C00D9E700002DE9FF470C46277E9146782FF7
:104C2C0080469A460C9904F1430207D8622F0AD8A1
:104C3C00002F00F0D980582F00F0A48004F1420618
:104C4C0084F842703AE0A7F16303152BF6D801A063
:104C5C0050F823F0B94C0008CD4C0008494C000822
:104C6C00494C0008494C0008494C0008CD4C000840
:104C7C00494C0008494C0008494C0008494C0008B4
:104C8C00DB4D0008FD4C0008BD4D0008494C0008E8
:104C9C00494C0008FD4D0008494C0008FD4C00082B
:104CAC00494C0008494C0008C54D00080B6804F13C
:104CBC0042061A1D1B680A6084F842300123A4E0E6
:104CCC00256808682E0600F104030AD505680B60F8
:104CDC00002D03DA2D236D4284F843300A235E48FD
:104CEC0019E015F0400F05680B6018BF2DB2EFE707
:104CFC000B682568181D0860280601D51D6802E0A0
:104D0C006906FBD51D886F2F0CBF08230A23524858
:104D1C00002184F843106668002EA8BF2168A660A5
:104D2C00A4BF21F0040121600DB9002E4DD0164610
:104D3C00B5FBF3F103FB1157C75D06F8017D2F4658
:104D4C00BB420D46F4D9082B0BD12368DF0708D5DD
:104D5C00236961689942DEBF302306F8013C06F1F5
:104D6C00FF36921B22614B4621464046CDF800A0EF
:104D7C0003AAFFF7DFFE01304CD14FF0FF3004B037
:104D8C00BDE8F087344884F845700E68236856F8FF
:104D9C00045B1F060E6014D5D90744BF43F02003F3
:104DAC0023601DB9236823F0200323601023AFE791
:104DBC00236843F0200323607823284884F8453087
:104DCC00E3E75E0648BFADB2E6E71646BBE70B6805
:104DDC0026681D1D60690D6035061B6801D51860BD
:104DEC0002E07106FBD51880002316462361BAE752
:104DFC000B681A1D0A601E6800213046626800F0BC
:104E0C0031F808B1801B606063682361002384F86B
:104E1C004330A8E73246494640462369D047013023
:104E2C00ABD023689B0713D4E068039B9842B8BFB0
:104E3C001846A4E70123324649464046D047013084
:104E4C009BD00135E36803995B1AAB42F2DCEBE7CC
:104E5C00002504F11906F5E7D3510008E4510008C8
:104E6C0070477047034610B5C9B2024493421846C6
:104E7C0001D1002003E0047801338C42F6D110BD3F
:104E8C000A44914200F1FF3300D1704710B511F87C
:104E9C00014B914203F8014FF9D110BD884210B576
:104EAC0001EB020402D98442234607D8431EA142D7
:104EBC0008D011F8012B03F8012FF8E70146024442
:104ECC008A4200D110BD13F8014D02F8014DF7E7ED
:104EDC00F8B5074614460E4621B91146BDE8F84010
:104EEC00FFF736BC22B9FFF7E7FB25462846F8BD8D
:104EFC0000F014F8A0420FD221463846FFF728FCE8
:104F0C0005460028F2D031462246FFF7B9FF31465C
:104F1C003846FFF7D1FBE9E73546E7E751F8043CA3
:104F2C00181F002BBCBF0B58C0187047F8B500BF3A
:104F3C00F8BC08BC9E467047F8B500BFF8BC08BC6E
:044F4C009E467047C6
:104F50005045444553545249414E202D2D2054690B
:104F60006D653A2032300D0A00000000526F616416
:104F700020313A205245440D0A54696D653A256442
:104F80000D0A0000526F616420323A2047524545B5
:104F90004E0D0A54696D653A25640D0A0D0A00002C
:104FA000526F616420323A2059454C4C4F570D0ADC
:104FB00054696D653A25640D0A0D0A00526F6164EB
:104FC00020313A20475245454E0D0A54696D653AE5
:104FD00025640D0A00000000526F616420323A20FF
:104FE0005245440D0A54696D653A25640D0A0D0A4F
:104FF00000000000526F616420313A2059454C4C4A
:105000004F570D0A54696D653A25640D0A0000007A
:105010004D414E55414C3A205245440D0A54696D5C
:10502000653A25640D0A00004D414E55414C3A2029
:10503000475245454E0D0A54696D653A25640D0A7F
:105040000D0A00004D414E55414C3A20475245450E
:105050004E0D0A54696D653A25640D0A0000000082
:105060004D414E55414C3A205245440D0A54696D0C
:10507000653A25640D0A0D0A0000000054756E693A
:105080006E673A205245440D0A54696D653A2564AD
:105090000D0A000054756E696E673A204752454507
:1050A0004E0D0A54696D653A25640D0A0D0A00001B
:1050B00054756E696E673A2059454C4C4F570D0A2E
:1050C00054696D653A25640D0A0D0A0054756E69C0
:1050D0006E673A20475245454E0D0A54696D653A50
:1050E00025640D0A0000000054756E696E673A2051
:1050F0005245440D0A54696D653A25640D0A0D0A3E
:105100000000000054756E696E673A2059454C4C9A
:105110004F570D0A54696D653A25640D0A00000069
:10512000414444205441534B3A2046756E637469A0
:105130006F6E20706F696E74657220696E76616C37
:1051400069640D0A00000000414444205441534B5F
:105150003A205363686564756C65722066756C6C83
:105160000D0A0000414444205441534B3A2041640D
:1051700064656420256C750D0A00000041444420DC
:105180005441534B3A2041646465642066697273EC
:105190007420256C750D0A0000000000000000005E
:1051A00001020304060708090000000001020304CD
:1051B00002030405060708090A0B0C0D0E0F101058
:1051C0000102232D302B2000686C4C00656667457A
:1051D000464700303132333435363738394142436F
:1051E0004445460030313233343536373839616220
:0851F000636465660000000025
:0451F8003101000879
:0451FC000D01000899
:10520000010101010101010101010101010101018E
:105210006400640064006400010000000A000000F3
:105220000024F40010000000010000003000002005
:10523000000000000000000000000000000000006E
:10524000000000000000000000000000000000005E
:10525000000000000000000000000000000000004E
:10526000000000000000000000000000000000003E
:10527000000000000000000000000000000000002E
:10528000000000000000000000000000000000001E
:0400000508001AE1F4
:00000001FF
